:100000000C9462000C948A000C948A000C948A0070
:100010000C948A000C948A000C948A000C948A0038
:100020000C948A000C948A000C948A000C948A0028
:100030000C948A000C948A000C948A000C948A0018
:100040000C94A1030C948A000C9411040C94EB03FF
:100050000C948A000C948A000C948A000C948A00F8
:100060000C948A000C948A000000000023002600F3
:10007000290000000000240027002A0000000000E2
:10008000250028002B0004040404040404040202D4
:100090000202020203030303030301020408102007
:1000A0004080010204081020010204081020000012
:1000B0000008000201000003040700000000000027
:1000C0000000430411241FBECFEFD8E0DEBFCDBF38
:1000D00011E0A0E0B1E0EEE4FBE002C005900D927B
:1000E000AA35B107D9F722E0AAE5B1E001C01D9217
:1000F000A831B207E1F710E0C2E6D0E004C02197D2
:10010000FE010E949F05C136D107C9F70E948D04E8
:100110000C94A5050C940000833081F028F4813004
:1001200099F08230A9F008958730A9F08830C9F09D
:100130008430B1F4809180008F7D03C08091800075
:100140008F7780938000089584B58F7784BD08955C
:1001500084B58F7DFBCF8091B0008F778093B00006
:1001600008958091B0008F7DF9CF1F93CF93DF93D7
:10017000282F30E0F901E255FF4F8491F901E6564E
:10018000FF4FD491F901EA57FF4FC491CC23A9F056
:10019000162F81110E948C00EC2FF0E0EE0FFF1F54
:1001A000E458FF4FA591B4918FB7F894EC911111D9
:1001B00008C0D095DE23DC938FBFDF91CF911F91D4
:1001C0000895DE2BF8CFCF93DF9390E0FC01E65645
:1001D000FF4F24918A579F4FFC0184918823D1F0CF
:1001E00090E0880F991FFC01EE58FF4FA591B49144
:1001F000FC01E458FF4FC591D49161110EC09FB727
:10020000F8948C91E22FE0958E238C932881E22341
:10021000E8839FBFDF91CF9108958FB7F894EC9159
:10022000E22BEC938FBFF6CF3FB7F89480915F013C
:1002300090916001A0916101B091620126B5A89BE7
:1002400005C02F3F19F00196A11DB11D3FBFBA2F68
:10025000A92F982F8827BC01CD01620F711D811D28
:10026000911D42E0660F771F881F991F4A95D1F7AD
:100270000895AF92BF92CF92DF92EF92FF920F93C9
:100280001F93CF93DF936C017B018B01040F151F2C
:10029000EB015E01AE18BF08C017D10759F0699194
:1002A000D601ED91FC910190F081E02DC6010995F8
:1002B000892B79F7C501DF91CF911F910F91FF90A5
:1002C000EF90DF90CF90BF90AF900895FC01538DD9
:1002D000448D252F30E0842F90E0821B930B541720
:1002E00010F0CF96089501970895FC01918D828DAD
:1002F000981761F0A28DAE0FBF2FB11D5D968C9146
:10030000928D9F5F9F73928F90E008958FEF9FEF84
:100310000895FC01918D828D981731F0828DE80F40
:10032000F11D858D90E008958FEF9FEF0895FC01FA
:10033000918D228D892F90E0805C9F4F821B9109C7
:100340008F739927089583E691E00E94970121E039
:10035000892B09F420E0822F089580E090E0892B1A
:1003600029F00E94A30181110C9400000895FC0162
:10037000A48DA80FB92FB11DA35ABF4F2C91848D06
:1003800090E001968F739927848FA689B7892C9363
:10039000A089B1898C91837080648C93938D848DB6
:1003A000981306C00288F389E02D80818F7D8083B9
:1003B0000895EF92FF920F931F93CF93DF93EC0179
:1003C00081E0888F9B8D8C8D98131AC0E889F989FC
:1003D000808185FF15C09FB7F894EE89FF896083FF
:1003E000E889F98980818370806480839FBF81E080
:1003F00090E0DF91CF911F910F91FF90EF900895C2
:10040000F62E0B8D10E00F5F1F4F0F731127E02E9C
:100410008C8D8E110CC00FB607FCFACFE889F989D4
:10042000808185FFF5CFCE010E94B701F1CFEB8D22
:10043000EC0FFD2FF11DE35AFF4FF0829FB7F894A8
:100440000B8FEA89FB8980818062CFCFCF93DF93C6
:10045000EC01888D8823B9F0AA89BB89E889F989DC
:100460008C9185FD03C0808186FD0DC00FB607FC11
:10047000F7CF8C9185FFF2CF808185FFEDCFCE0144
:100480000E94B701E9CFDF91CF910895089590E0E0
:1004900080E00895FB0101900020E9F73197AF015A
:1004A000461B570BDC01ED91FC910280F381E02D9E
:1004B0000994CF93DF93EC0160E08E810E94B50038
:1004C00061E08E810E94B50060E08E810E94B500DF
:1004D0008BE891E00197F1F7DF91CF910895CF92EA
:1004E000DF92EF92FF920F931F93CF93DF936C01F4
:1004F0007C0187E0E80EF11CD0E0C0E0062F10E0A0
:10050000B8010C2E02C0759567950A94E2F76170E8
:10051000F70181917F010E94B5002196C430D10579
:1005200079F7C601DF91CF911F910F91FF90EF9066
:10053000DF90CF900C945902CF92DF92EF92FF920E
:100540000F931F93CF93DF93EC01F62E642F8C81D2
:100550000E94B5008D818F3F19F060E00E94B500C8
:100560000F2D10E08F8584FF25C06E0187E0C80E37
:10057000D11CF12CE12CB8010E2C02C075956795A9
:100580000A94E2F76170F60181916F010E94B50053
:10059000FFEFEF1AFF0A88E0E816F10461F7CE01D9
:1005A000DF91CF911F910F91FF90EF90DF90CF904F
:1005B0000C945902B80184E0759567958A95E1F726
:1005C000CE010E946F026F2DCE01DF91CF911F915E
:1005D0000F91FF90EF90DF90CF900C946F0240E06E
:1005E000682F80E092E00C949C02CF93DF938230DE
:1005F00029F490910F02986090930F028093130258
:100600001092140280E48093150280E18093160218
:1006100080E58093170261E0809104020E94E3006C
:10062000809105028F3F19F061E00E94E30061E0D4
:10063000809106020E94E300C0E0D2E09E012050BB
:10064000324080910F0284FD0BC084E090E021963F
:100650002817390744F461E08E810E94E300EECF51
:1006600088E090E0F4CF8BE39DE00197F1F760E044
:10067000809104020E94B50060E0809106020E9411
:10068000B500809105028F3F19F060E00E94B5002F
:1006900080910F0284FD39C063E080E092E00E9407
:1006A0006F02CBE4D6E4CE010197F1F763E080E07E
:1006B00092E00E946F022197F1F763E080E092E000
:1006C0000E946F0283E592E00197F1F762E080E01B
:1006D00092E00E946F0280910F0280620E94EF02FE
:1006E00084E0809310028CE00E94EF0281E00E947F
:1006F000EF028BE39FE10197F1F782E08093110213
:1007000086E0DF91CF910C94EF0280620E94EF02AD
:100710008BE496E40197F1F780910F0280620E94CA
:10072000EF0283E592E00197F1F780910F0280627A
:100730000E94EF02D0CF41E00E949C0281E090E055
:1007400008951F920F920FB60F9211242F933F938B
:100750008F939F93AF93BF9380915B0190915C01C6
:10076000A0915D01B0915E0130915A0123E0230F09
:100770002D3758F50196A11DB11D20935A01809384
:100780005B0190935C01A0935D01B0935E01809149
:100790005F0190916001A0916101B09162010196A9
:1007A000A11DB11D80935F0190936001A093610131
:1007B000B0936201BF91AF919F918F913F912F9123
:1007C0000F900FBE0F901F90189526E8230F0296EA
:1007D000A11DB11DD2CF1F920F920FB60F921124FF
:1007E0002F933F934F935F936F937F938F939F9339
:1007F000AF93BF93EF93FF9383E691E00E94B7011D
:10080000FF91EF91BF91AF919F918F917F916F91E8
:100810005F914F913F912F910F900FBE0F901F90BE
:1008200018951F920F920FB60F9211242F938F934A
:100830009F93EF93FF93E0917301F0917401808196
:10084000E0917901F0917A0182FD1BC09081809145
:100850007C018F5F8F7320917D01821741F0E091C1
:100860007C01F0E0ED59FE4F958F80937C01FF9164
:10087000EF919F918F912F910F900FBE0F901F902E
:1008800018958081F4CFE3E6F1E01382128288EEBE
:1008900093E0A0E0B0E084839583A683B78384E0EF
:1008A00091E09183808385EC90E09587848784EC48
:1008B00090E09787868780EC90E0918B808B81EC2D
:1008C00090E0938B828B82EC90E0958B848B86EC0E
:1008D00090E0978B868B118E128E138E148EE0E033
:1008E000F2E01382128286E191E09183808387E0B7
:1008F00084838FEF858388E0868389E087838AE01D
:1009000080878BE081878CE082871386148615862A
:100910001686178681E00C94F502789484B582607F
:1009200084BD84B5816084BD85B5826085BD85B593
:10093000816085BD80916E00816080936E00109211
:10094000810080918100826080938100809181008C
:10095000816080938100809180008160809380001D
:100960008091B10084608093B1008091B00081607B
:100970008093B00080917A00846080937A008091A7
:100980007A00826080937A0080917A0081608093FF
:100990007A0080917A00806880937A001092C1007A
:1009A00060E082E00E94E300E0917301F091740145
:1009B00082E08083E0916F01F09170011082E091FC
:1009C0007101F09172018FEC808310927B01E091B4
:1009D0007701F091780186E08083E0917501F091D4
:1009E0007601808180618083E0917501F0917601CC
:1009F000808188608083E0917501F091760180812B
:100A000080688083E0917501F091760180818F7D0F
:100A1000808382E00E94F5026EE171E080E092E066
:100A20000E944A0220EB822E20E0922ECCE9D0E0F8
:100A300008E810E030E0A32E30E0B32EF4018491FA
:100A4000FE01E490F801F490FF2009F461C08111E7
:100A50000E948C00EF2DF0E0EE0FFF1FE859FF4FD2
:100A6000A591B4918C91E82209F452C0E09113024F
:100A7000E23008F04BC0E150F0E0E050FE4F8489D6
:100A800080680E94EF026DE271E080E092E00E94D7
:100A90004A026DE271E083E691E00E944A026DE352
:100AA00071E083E691E00E944A020E9414012B014A
:100AB0003C0184EFC82EDD24D394E12CF12C0E945C
:100AC00014016419750986099709683E7340810508
:100AD0009105A8F3F1E0CF1AD108E108F10828EE5A
:100AE000420E23E0521E611C711CC114D104E104AA
:100AF000F10429F7A114B10409F4A0CF0E94A301C5
:100B0000882309F49BCF0E94000098CFE1E0B4CF86
:100B1000E0911302E23088F4E150F0E0E050FE4F43
:100B2000848980680E94EF0260E471E080E092E0D6
:100B30000E944A0260E571E0AECFE1E0EECFEE0F39
:0E0B4000FF1F0590F491E02D0994F894FFCF6B
:100B4E0000000000D90139016601260297017501E6
:100B5E008901000000009B03390147024602466CE2
:100B6E00616D65204465746563746F7200466C61D7
:100B7E006D6520446574656374656421000D0A001B
:100B8E004E6F20466C616D652020202020202000B5
:0A0B9E004E6F20466C616D6500008B
:00000001FF
